:020000040800F2
:10000000C004002099010008AD110008A5110008E6
:10001000A9110008A50200087D13000800000000D7
:10002000000000000000000000000000B511000802
:10003000A902000800000000B1110008B911000871
:10004000B3010008B3010008B3010008B3010008C0
:10005000B3010008B3010008B3010008B3010008B0
:10006000B3010008B3010008B3010008B3010008A0
:10007000B3010008B3010008B3010008B301000890
:10008000B3010008B3010008B3010008B301000880
:10009000B3010008B3010008B3010008B301000870
:1000A000B3010008B3010008B3010008B301000860
:1000B000B3010008B3010008B3010008B301000850
:1000C000B3010008B3010008B3010008B301000840
:1000D000B3010008B301000871130008B301000860
:1000E000B3010008B3010008B3010008B301000820
:1000F000B3010008B3010008B3010008B301000810
:10010000B3010008B3010008B3010008B3010008FF
:10011000B3010008B3010008B3010008B3010008EF
:10012000B3010008B3010008B3010008B3010008DF
:10013000B30100080000000000000000B301000847
:10014000B3010008B3010008B3010008B3010008BF
:10015000B3010008B3010008B3010008B3010008AF
:10016000B3010008B3010008B3010008B30100089F
:10017000B3010008B3010008000000000000000007
:10018000B3010008DFF80CD000F07AF8004800470F
:1001900081130008C0040020064880470648004735
:1001A000FEE7FEE7FEE7FEE7FEE7FEE7FEE7FEE727
:1001B000FEE7FEE7BD110008850100082DE9F05FAC
:1001C0000546002092469B468846064681464024C6
:1001D0001BE0284641464746224600F041F8534678
:1001E0005A46C01A914110D311461846224600F0D3
:1001F00028F82D1A67EB01084F46224601200021FE
:1002000000F01FF817EB00094E41201EA4F1010475
:10021000DFDC484631462A464346BDE8F09FD2B26D
:1002200001E000F8012B491EFBD270470022F6E7DF
:1002300010B513460A4604461946FFF7F0FF20465C
:1002400010BD202A04DB203A00FA02F1002070479A
:100250009140C2F1200320FA03F319439040704704
:10026000202A04DB203A21FA02F00021704721FA0B
:1002700002F3D040C2F12002914008431946704772
:10028000064C074D06E0E06840F0010394E80700E3
:1002900098471034AC42F6D3FFF778FFE016000819
:1002A00000170008FEE700007047000070B5866D7B
:1002B000044600F02DF994F83510022928D105469E
:1002C0002068216C026822F016020260426922F066
:1002D0008002426109B9A16C19B1016821F00801DD
:1002E0000160016821F00101016000BF2068006821
:1002F000C00715D000F00CF9401B0628F6D32020CB
:100300006065032084F83500002184F8341070BD46
:10031000802060650120002184F8341070BD00BF8A
:10032000E06D3F2101FA00F0B060012084F8350053
:100330000020002184F8341070BD000090F83510C2
:10034000022909D1052180F835100068016821F0E3
:100350000101016000207047802141650120704744
:100360002DE9F04F82B00C68002C00F0C78000F13E
:100370003E4742F2000507F1FF77C4F20205092269
:1003800043F6004E4FEAB726A84208BF0822C4F23F
:10039000010E082E38BF4FEAB722002600274FF083
:1003A000000800920BE000BF0C6808F1010834FA65
:1003B00008F207F1040706F1020600F09F8001220F
:1003C00002FA08FC14EA0C09EED0D1F804B00322BA
:1003D0000BF00304651EB240012D6FEA020A11D82A
:1003E0008268CD6802EA0A02B5402A438260426808
:1003F000CBF3001522EA0C0205FA08F52A43426005
:1004000004E000BF032C01D103241DE0C2688D6805
:1004100002EA0A02B5402A43022CC26014D16FF0EE
:10042000030202EA58020244D2F820C007F01C047A
:100430000F230D69A3402CEA0303A5402B4313624D
:10044000D1F804B00BF00304026804FA06F302EAE0
:100450000A021A431BF4403F0260A5D0002243F673
:1004600044030192C4F202031A684FF6084C42F4A6
:1004700080421A601A68CFF6FF7C02F48042019233
:10048000019A28F00302724452F80C3007F00C0570
:100490000F24AC40A343009C04FA05F52B4342F81B
:1004A0000C30DEF800204B6842EA0905DC0358BF37
:1004B00022EA0905CEF80050DEF804209C0342EA47
:1004C000090558BF22EA0905CEF80450DEF80820D5
:1004D000DC0242EA090543F60C4458BF22EA09054A
:1004E000CEF80850C4F2010422689B0242EA0905D2
:1004F00058BF22EA0905256056E700BF02B0BDE8F3
:10050000F08F0000002A08BF0904816170470000D5
:1005100040F2BC00C2F200000068704740F20000E8
:1005200040F2BC01C2F20000C2F2000100780A6889
:10053000104408607047000080B543F60040C4F2E4
:100540000200016841F400710160016841F48061BA
:100550000160016841F480710160032000F088F8B7
:10056000002000F005F800F027F8002080BD000012
:1005700070B540F20006C2F2000640F2080132787F
:10058000C2F200014FF47A730968B3FBF2F2044639
:10059000B1FBF2F1084600F019FB0F2C4FF00105FA
:1005A00008D838B94FF0FF3021460022002500F06E
:1005B00033F87460284670BD82B0002043F64001D5
:1005C0000190C4F202014A6842F480424A604A68DB
:1005D00002F480420192019A0090086840F0805035
:1005E0000860086800F080500090009802B07047E2
:1005F000002848BF7047C1B200F01F00012202FA74
:1006000000F04EF20012CEF2000242EAD10121F0D7
:10061000030108607047000010B54EF60C5CCEF286
:10062000000CDCF80030C3F3022E8EF00704042C1B
:1006300028BF0424BEF103034FF0FF3E0EFA04F47A
:1006400038BF0023A14399400EFA03F39A431143A4
:1006500000F00F0200F160430901043A03F564431E
:100660006244002848BF02F10C03197010BD00005D
:100670004EF60C51CEF200010A684FF6FF031A4005
:1006800060F30A2242F0806040F0FD70086070471D
:100690002DE9F041002800F0C78043F60808C4F2B5
:1006A00002080446D8F8F8030D4600F00F0088420F
:1006B00008D288F8F853D8F8F80300F00F00A842E1
:1006C00040F0B2802068810717D5410705D5D8F8DA
:1006D000001041F4E051C8F80010010705D5D8F822
:1006E000001041F46041C8F80010D8F80010A2686A
:1006F00021F0F0011143C8F80010C00720D1D8F84C
:10070000F80300F00F00A84208D988F8F853D8F889
:10071000F80300F00F00A84240F0868020684107EF
:100720001CD4000724D4D8F8000000F00C000828DE
:100730002DD004284ED147F64000C0F27D104DE088
:100740006068022864D001286AD158F8081C89031F
:100750005CBF0120BDE8F0816AE000BFD8F800105E
:10076000E26821F4E0511143C8F800100007DAD51F
:10077000D8F80000216920F4604040EAC100C8F8C0
:100780000000D8F8000000F00C000828D1D158F87B
:10079000040C58F8041C58F8043C490247F6400180
:1007A000C0F27D1100F03F02C3F388105CBF42F23B
:1007B0000041C0F2F401A1FB00010023FFF7FEFCA1
:1007C00058F8041C0222C1F3014102EB4101B0FBC5
:1007D000F1F003E042F20040C0F2F400D8F800105B
:1007E00041F2C662C1F30311C0F60002515C40F24F
:1007F000080220FA01F140F20400C2F20000006891
:10080000C2F200021160FFF7B3FE0020BDE8F081E4
:1008100058F8081C89015CBF0120BDE8F08107E0A1
:1008200058F8081C890703D40120BDE8F08100BFF7
:10083000D8F8001021F003010843C8F80000FFF7C2
:1008400067FE064641F28837D8F80000616800F07C
:100850000C00B0EB810F3FF452AFFFF759FE801B45
:10086000B842F1D90320BDE8F081000040F2080051
:1008700043F60801C2F20000C4F2020100680968F0
:1008800041F2D662C1F38221C0F60002515CC84039
:100890007047000040F2080043F60801C2F2000071
:1008A000C4F202010068096841F2D662C1F3423124
:1008B000C0F60002515CC840704700002DE9F041CD
:1008C00082B0002800F084800446007843F60006D9
:1008D000C007C4F202062FD0B06800F00C00042854
:1008E00006D13068800327D5606828BB70E000BF60
:1008F000B06800F00C00082802D170684002F0D403
:100900006068B0706568FFF703FE002D054610D0E3
:100910003068800310D4FFF7FBFD401B6428F7D933
:10092000EDE000BFFFF7F4FD401B64284FF003002B
:100930004BD830688003F5D4207880071AD5B0688A
:1009400010F00C0F09D0B06800F00C00082840F03F
:1009500087807068400200F183803068800702D58C
:10096000E068012834D13068216920F0F80040EABD
:10097000C1003060207800072ED42078400743D48F
:10098000A5690DB3B06800F00C00082840F0BC80E9
:10099000012D1DD07068E16900F480028A4217D1F0
:1009A000216A00F03F028A4212D1616AC0F38812C4
:1009B0008A420DD1A16A00F440328A4208D1E16A2C
:1009C00000F07060884203D1002002B0BDE8F081E1
:1009D000012002B0BDE8F0816069002840F200000B
:1009E000C4F247207CD00121C0F8801EFFF790FDA3
:1009F000054600BF706F8007BFD4FFF789FD401B1D
:100A00000228F7D97BE000BF306C10F080580AD183
:100A100000200190306C40F080503064306C00F069
:100A200080500190019847F20007C4F2000738682F
:100A300040F4807038603868C00527D4386840F4C6
:100A400080703860FFF764FD054600BF3868C00558
:100A50001CD4FFF75DFD401B0228F7D94FE000BF13
:100A6000E068002872D00020C4F247200121016014
:100A7000FFF74EFD054600BF306880073FF573AFB6
:100A8000FFF746FD401B0228F6D938E0A06886F83B
:100A90007000A568FFF73CFD002D054641F2883740
:100AA00012D000BF306F800711D4FFF731FD401B1B
:100AB000B842F7D923E000BFFFF72AFD401BB84238
:100AC0004FF003003FF681AF306F8007F4D4B8F1E8
:100AD000000F7FF455AF306C20F0805030644FE74A
:100AE0000021C0F8801EFFF713FD0546706F8007D8
:100AF0007FF543AFFFF70CFD401B0228F6D903201A
:100B000002B0BDE8F08100BF0027C4F247270020F3
:100B10003866FFF7FDFC022D05460BD130688001D9
:100B200028D5FFF7F5FC401B64284FF00300F5D9EA
:100B30004BE700BF306880017FF546AFFFF7E8FC68
:100B4000401B64284FF00300F4D93EE70020C4F2B4
:100B5000472000210160FFF7DBFC05463068800775
:100B60007FF508AFFFF7D4FC401B02284FF00300CD
:100B7000F4D92AE7706848F20001CFF2BC0104F111
:100B80001C0500EA010C2ECDE46A41EA0C01ED03DC
:100B90004FF6FF70114325EA000041EA8311A0F5EA
:100BA000803041EA04610843706001203866FFF735
:100BB000AFFC0446306880013FF506AFFFF7A8FCA4
:100BC000001B64284FF00300F4D9FEE6411E00200C
:100BD000B0EB116F1CBF012070474EF21002CEF235
:100BE000000251604EF62351CEF20001F0230B704B
:100BF0000721906011607047704700007047000047
:100C0000B0B582B0026805461068D368546900F038
:100C10002F01202903F0200106D129B1284602B076
:100C2000BDE8B04000F0D2BA5FEA007C1EBF04F01D
:100C3000010E03F4907414EB0E0453D1296B0129B7
:100C400005D110F0100118BF13F0100136D10106C4
:100C500022D513F080011FD095F83D0021283FD107
:100C6000A868B0F5805F03D12869002800F0FA80F9
:100C7000286A411C296200785060E88C0138010420
:100C8000E8842DD1D06820F08000D060D06840F09A
:100C90004000D06002B0B0BD400621D513F0400046
:100CA0001ED0D068202120F04000D060284685F872
:100CB0003D1002B0BDE8B04000F072BA00200190D3
:100CC000106801905068019001985069400611D455
:100CD000A88DE98DEB8D002B18BF884240F0A880CD
:100CE00002B0B0BDC40718BF13F480732ED1430700
:100CF00032D438E0A86B01684B689CB2002CEFD06E
:100D0000A98D8C42ECD2EB85C369B3F5807F17D0F7
:100D1000D16821F48071D160516921F001015161E4
:100D2000516921F040015161202185F83E100021D8
:100D30002963D16821F01001D160FFF7B7FAA98DBE
:100D4000E88D081A81B2284686E000BF2B6C43F07C
:100D500001032B64430706D5BEF1000F03D02B6CB3
:100D600043F002032B64830706D5BEF1000F03D0C6
:100D70002B6C43F004032B64BCF1000F09D541EA4E
:100D80000E03B3FA83F35B0903D12B6C43F0080322
:100D90002B642B6C002BA3D010F0200018BF00296F
:100DA00003D0284600F012FA2A685069296C00F036
:100DB000400001F0080140182CD0D06820F4907059
:100DC000D060506920F001005061286B012803D1E8
:100DD000D06820F01000D060202085F83E00002070
:100DE0002863506940061DD5506920F040005061CD
:100DF000A86BB8B141F2C111C0F600010165FFF75F
:100E00009DFA00283FF46CAFA86B016D02B0BDE8FD
:100E1000B04008472846FFF7F1FE0020286402B0E2
:100E2000B0BD00BF284602B0BDE8B040FFF7E6BE47
:100E3000D368401A23F49073D360536981B223F0CE
:100E400001035361202385F83E3000232B63D368D0
:100E5000284623F01003D36002B0BDE8B040FFF78E
:100E6000CBBE00BF286A30F8021B6FF35F215160D0
:100E7000286202E7002804BF0120704710B504462D
:100E800090F83D0028B9002084F83C00204600F08E
:100E900021F8242084F83D002068C16821F4005125
:100EA000C160204600F0EEF92068016921F490410C
:100EB0000161416921F02A014161C16841F4005199
:100EC000C16000202021206484F83D1084F83E1089
:100ED00010BD000080B586B0016844F20040C4F245
:100EE0000000814202D006B080BD00BF002143F661
:100EF00030020191C4F20202136900F5DE3043F4BE
:100F000000331361136903F400330193019B0191D2
:100F1000136843F001031360126802F001020192AA
:100F2000019A0C2201920222CDE9022103210491AF
:100F30000721059101A9FFF713FA262001210022BC
:100F4000FFF76AFB2620FFF753FB06B080BD0000C9
:100F5000034690F83E0020280AD100294FF00100F6
:100F600018BF002A00D1704793F83C00012801D136
:100F70000220704700201863996222219A85DA8541
:100F8000186483F83E10196883F83C00CA6842F47C
:100F90008072CA604A6942F001024A61CA6842F03E
:100FA0002002CA607047000010B540F21004C2F27F
:100FB000000400686168884218BF10BD20787E2850
:100FC00002D10020607011E0607840F258020130D8
:100FD000607020786178C2F20002114401F8010CBF
:100FE000201D21460122642300F008F8201D21461F
:100FF0000122BDE81040FFF7ABBF00002DE9F04132
:10100000044690F83D0020280ED10D4600294FF0EF
:10101000010000F08E801646002A08BFBDE8F0816E
:1010200094F83C00012803D10220BDE8F08100BF04
:10103000012084F83C00002020642120984684F898
:101040003D00FFF765FAA684E684A1680646B1F57F
:10105000805F03D12069002800F0A0802F46002582
:10106000002084F83C00E08CE0B118F101001BD0B6
:10107000B8F1000F60D120680BE000BF35F8021B0B
:1010800000276FF35F214160E18C0139E184E18C3D
:1010900051B3016809066DD5002FEFD017F8011B79
:1010A000F1E700BF20681FE0206802E00168090640
:1010B00009D40168090606D4016809065CBF016805
:1010C0005FEA0161F2D51FB117F8011B05E000BF0F
:1010D00035F8021B00276FF35F214160E18C013975
:1010E000E184E18C0029E4D1016849061DD4B8F1FE
:1010F000000F3FD018F101010ED10168490614D448
:10110000016849065CBF01685FEA41610DD401686E
:101110004906F2D509E000BFFFF7FAF9811B206804
:10112000414527D800684006F6D5202084F83D00C8
:101130000020BDE8F08100BF206800BF01680906FB
:1011400006D4FFF7E5F9811B20684145F6D911E087
:1011500017B117F8011B04E035F8021B00276FF3E5
:101160005F214160E18C0139E184E18C0029E5D106
:10117000BAE700BFC16821F4D071C160416921F0B4
:1011800001014161202084F83D0084F83E000020E8
:1011900084F83C000320BDE8F08100BF00275FE732
:1011A00070470000FEE70000FEE70000FEE70000D9
:1011B0007047000070470000FFF7B0B970470000AB
:1011C000806B0021C185C184FFF718BD81B090F804
:1011D0003E10222921D183680246B3F5805F09D1F0
:1011E00052F8281F52F8183C002B3FD003685B6868
:1011F0000AE000BF52F8281F13B90369002BF5D08D
:1012000003685B6803F07F030B70116801311160A4
:10121000C18D01390A04C18502D001B0704700BFF9
:101220000168CA6822F02002CA60CA6822F480728B
:10123000CA604A6922F001024A61202280F83E20F9
:10124000026B012A1AD100220263CB6823F010033B
:10125000CB600B68DB0605D500920A6800924968EE
:1012600000910099818D01B0FFF7C6BC02685268F9
:101270006FF35F2221F8022B8162C9E701B0FFF70B
:1012800093BE000010B504460068D4E902C2236989
:10129000016921F4405111430161626943EA0C0183
:1012A000E3691143C268194349F20C639A4311433D
:1012B000C1604169A26921F4407141F200431143C8
:1012C00040F48062C4F201039A42416102D1FFF707
:1012D000E1FA01E0FFF7CAFAE26961681923B2F5A1
:1012E000004F03FB00F023D14900B0FBF1F048F2BE
:1012F0001F51C5F2EB11A0FB01235A094FF69C7355
:10130000C0F6FF7303F1805302FB0300322303EBAB
:10131000C000A0FB01014FF4F87000EA111000EBCF
:101320000210C1F3421108442168886010BD00BF5B
:101330008900B0FBF1F048F21F51C5F2EB11A0FBA0
:1013400001235A094FF69C73C0F6FF7302FB03009A
:10135000322303EB0010A0FB0101F02000EA511042
:1013600000EB0210C1F3431108442168886010BDEE
:1013700040F21400C2F20000FFF742BCFEE700009A
:1013800092B0FFF7D9F806AC201D2C21FEF74EFFD6
:10139000022006900120099010200A900025204686
:1013A0000C95FFF78BFA28B1EFF3108072B600BFEF
:1013B000FEE700BF0F20CDE9010501A80021CDE91E
:1013C00003550595FFF764F920B1EFF3108072B66D
:1013D000FEE700BF4FF0000B43F63000CDF828B019
:1013E000CDF804B0C4F20200016841F2000441F0FB
:1013F000010101600168C4F2020401F001010191E0
:101400000199CDF804B00168A4F5805541F00201BE
:1014100001600168002201F0020101910199CDF8FB
:1014200004B001684FF0800841F0100101600068CD
:10143000802100F01000019001982846FFF762F823
:10144000A4F540663046052100224FF00509FFF75C
:1014500059F820464FF4786100224FF4786AFFF77C
:1014600051F8CDF818800DF118080127284641469B
:10147000CDE90777CDF824B0FEF772FF304641463C
:10148000CDE90697CDE9087BFEF76AFF2046414685
:10149000CDE906A7CDE9087BFEF762FF40F2100810
:1014A000C2F20008A4F5E631404640F8041F4FF4AC
:1014B00016510C22C0E9011BC0E903BBC0E9052B92
:1014C000C0F81CB0FFF7D6FC20B1EFF3108072B665
:1014D000FEE700BF08F10400414601224FF0010879
:1014E000FFF736FD304601210122FFF70BF82846B1
:1014F00080210122FFF706F8304604210122FFF780
:1015000001F8204680210122FEF7FCFF20464FF41F
:1015100080710122FEF7F6FF20464FF40071012290
:10152000FEF7F0FF20464FF480610122FEF7EAFF4C
:1015300040F25807C2F2000702E000BF4FF0000877
:101540005FFA88F220464FF40061FEF7DBFF02E00D
:10155000F8793028F2D03878312804D1304601218A
:101560000122FEF7CFFF3878302827D0787831284D
:101570002CD07878302831D0B878312836D0B87867
:1015800030283BD0F878312840D0F878302845D042
:10159000387931284AD03879302850D078793128B4
:1015A00056D0787930285CD0B879312862D0B879B3
:1015B000302868D0F8793128CAD16EE03046012150
:1015C0000022FEF79FFF78783128D2D1284680216B
:1015D0000122FEF797FF78783028CDD12846802168
:1015E0000022FEF78FFFB8783128C8D13046042199
:1015F0000122FEF787FFB8783028C3D13046042196
:101600000022FEF77FFFF8783128BED120468021E6
:101610000122FEF777FFF8783028B9D120468021E3
:101620000022FEF76FFF38793128B4D120464FF4FD
:1016300080710122FEF766FF38793028AED120464E
:101640004FF480710022FEF75DFF78793128A8D130
:1016500020464FF400710122FEF754FF78793028BC
:10166000A2D120464FF400710022FEF74BFFB8795B
:1016700031289CD120464FF480610122FEF742FFC1
:10168000B879302896D120464FF480610022FEF7C9
:1016900039FFF87931287FF45BAF20464FF40061C1
:1016A0000122FEF72FFF53E702E008C8121F08C10E
:1016B000002AFAD170477047002001E001C1121FD3
:1016C000002AFBD17047000000000000000001026A
:1016D00003040607080900000000010203040000DB
:1016E000001700080000002010000000A8160008E5
:1016F0001017000810000020B0040000B816000801
:1017000001000000100000000024F40000000000B0
:040000050800018569
:00000001FF
